:020000040000FA
:06000000020AD3020233E4
:03002B000208C602
:030033000206A71B
:030053000201683F
:03006B0002068109
:100083000201C70100F0FF0700080000FFFF0000A6
:10009300050400000003000147726F757000FF0440
:1000A30000100020FD000206FFFF08001D12A81526
:1000B300001E015357343A2048656C7020202020DD
:1000C30020202000C91300000000000000000000F1
:1000D30000000000000000000000000010202020AD
:1000E3002020202020202020202020202001080460
:1000F3000100010002968201E482010400004D1216
:10010300000000E8030000FFFF9E120188130000B7
:10011300E803000064006400B801A0BB0D00A0BBAD
:100123000D00020202070401051E02051E020A0A4F
:10013300010108080103B80B02803E0102FEFFE83B
:10014300030A050001FFFF020A011401E005030190
:1001530001FF0FEA2400000000BE2300000000FF9F
:10016300000000FF00C0E074F112044AA2AFE433C0
:10017300F509D2AF85A708AFA1EF5508FE74105E4D
:100183006006120D9375A1EF74085E6008120D9955
:1001930075A1F78024EFA2E092F0E508A2E082F0D7
:1001A3005017906198E0F89004A1E0C398A2D2653B
:1001B300D0335002E8F075A1FEE509A2E092AF7FCB
:1001C300020204A9C0E074F212044AA2AFE433FEAF
:1001D300D2AF9061A4E0F8759B00E5915854086094
:1001E300087591F7120DE78023E5915854106008C4
:1001F3007591EF120DED8014E591A2E092F0E8A263
:10020300E082F05007E0C2E0F0120F379061A3E004
:10021300F8E5E9585404600E120F0D75E9FB90617F
:1002230093E0A2E640F2EEA2E092AF7F010204A9BE
:10023300C0E074F212044AA2AFE433FED2AF90617D
:10024300A5E0F8E5BF585404600675BFFB120F4FD5
:1002530080D4C3E498F8E499F91202968026C3E4A3
:100263009AFAE49BFBE920E7E9120296E498F8E4A2
:1002730099F922C3E498F8E499F9120296E498F8FC
:10028300E499F9C3E49AFAE49BFB22EB20E7CFE974
:1002930020E7E0B90010BB0008E88AF084F8AAF070
:1002A30022E4FBC8FA22EB70227B10C833C8C9339F
:1002B300C9335007C39AC3DBF280069A50012ADB85
:1002C300EAC833F4C8C933F4C9FA2275F008E4C89C
:1002D30033C8C933C933C99AC99B5004C92AC93B16
:1002E300D5F0ECFBC833F4C8E4C9FA22080808EADD
:1002F300C0E0EBC0E086F0E7A4FA180986F0E7A4B3
:100303002AFA180986F0E7A42AFA180986F0E7A45E
:100313002AFA1986F0E7A4FBE5F02AFA190886F011
:10032300E7A42BFBE5F03AFA190886F0E7A42BFBC8
:10033300E5F03AFA18180986F0E7A4C5F02BFBE4B8
:100343003AFA1908E7C5F0C6A426F6E5F03BFBE444
:100353003AFA1886F0E7A4F6E5F00826F6E43B0837
:10036300F6E43A08F6D0E0FBD0E0FA22E4CFC0E0AE
:10037300E4CEC0E0E4CDC0E0E4CCC0E075F020E61C
:1003830026F608E633F608E633F608E633F61818D9
:1003930018EC33FCED33FDEE33FEEF33FFC3EC9784
:1003A30009ED9709EE9709EF97191919400FFFEC1B
:1003B30097FC09ED97FD09EE97FE191906D5F0BFD5
:1003C300ECF709EDF709EEF709EFF7191919D0E082
:1003D300FCD0E0FDD0E0FED0E0FF222518C582C0AE
:1003E300E0E51934FFC583C0E0E518C3958224F81E
:1003F30010AF088583198582188008858319858243
:1004030018D2AFCEF0A3E520F0A37808E608F0A356
:10041300DEFAEFF0A3E58124FAF8E608F0A3E60894
:10042300F0A3E608F0A30808E608F0A3E608F0A3A3
:1004330015811581D0E0FED0E0F815811581158175
:10044300E8C0E0EEC0E022C0D02518C582C0E0E5D8
:100453001934FFC583C0E0E518C3958224F310AFB8
:10046300088583198582188008858319858218D2A7
:10047300AFC8F0A3E9F0A3EAF0A3EBF0A37908E790
:1004830009F0A3D8FAECF0A3EDF0A3EEF0A3EFF09C
:10049300A3D0E0F0A3D0E0F0A3D0E0F0A3E520F0F8
:1004A300A3E5F0F0A322851983851882E0C0E0A3B9
:1004B300E0F9A3E0FAA3E0FBA37808E0F608A3DFE2
:1004C300FAE0FCA3E0FDA3E0FEA3E0FFA3E0C0E0AD
:1004D300A3E0C0E0A3E0F5D0A3E0F520A3E0A3F5FB
:1004E300F010AF08858319858218800885831985E4
:1004F3008218D2AFD082D083D0E0F8D0E032120B92
:100503004DB90003020540E4900401783D7912805F
:1005130002F0A3D8FCD9FA7A3D7B1590008678E3E4
:1005230079018015E493A3AD82AE838A828B83F035
:10053300A3AA82AB838D828E83D8E9D9E77582170C
:100543007583CB74041208577582BB7583217400BD
:10055300120857E47375F0108E1A8F1B85821F855E
:10056300831E851882851983E0CEA3E0CF851F8281
:10057300851E83EBC9EAC8EDCBECCAC3E833C8E9EF
:1005830033C9EA33CAEB33CBC3EA9EF51DEB9FF5C0
:100593001CB35004AB1CAA1DEC33CCED33CDD5F00A
:1005A300DAAE1AAF1B22D083D082ECC0E0EDC0E0FC
:1005B300E493A3FCE493A3FDED4C600D1206C5EC9C
:1005C30024FFFCED34FFFD80EFE493A3FCE493A34D
:1005D300FDED4C600D120762EC24FFFCED34FFFDD2
:1005E30080EFD0E0FDD0E0FCE493A3C0E0E493C04F
:1005F300E022D083D082E9C0E0E493A3C386F0C5B0
:10060300F095F0F908E493A386F0C5F095F0700B2C
:10061300E493A3C3994005E9048002A3E475F002BF
:10062300A42582F582E5F03583F583D0E0F9E493E0
:10063300A3C0E0E493C0E022851983851882E0A378
:10064300FEE0A3F5207808E0A3F608DFFAE0A3FFB5
:10065300E0A3C0E0E0A3C0E0E0A3C0E0E0A3C0E00B
:10066300E0A3C0E010AF0885821885831980088550
:100673008218858319D2AFD083D08202085DC0E08F
:1006830074F212044AA2AFE433FED2AFE589A2E1C9
:100693005003120CA3758900C2C5EEA2E092AF7F8E
:1006A300010204A9C0E074F212044AA2AFE433FECB
:1006B300D2AFE58BA2E05003120CA3758B00C2E806
:1006C30080D8C0E0C3E49396087401939618400F52
:1006D300E49366700808740193661870007019A398
:1006E300A3C3E49396087401939618A3A3400DD073
:1006F300E0D0E0D0E00205E5A3A3A3A3A3A3D0E049
:10070300227404800474028000CCC0E0EDC0E0E5F4
:1007130018C39CCCAD1950011D10AF068C188D1950
:1007230080068C188D19D2AF1207D9D0E0FDD0E026
:10073300FC2274028000CCC0E0EDC0E0E518C39C4D
:10074300CCAD1950011D10AF068C188D1980068C85
:10075300188D19D2AF1207B7D0E0FDD0E0FC22C04C
:10076300E0C0F088F0E4936670080874019366189B
:100773007000A8F0A3A3700BD0F0D0E0D0E0D0E0DD
:100783000205E5A3A3D0F0D0E022D083D082CCC071
:10079300E0E493A360061208191470FAE493A360CB
:1007A300061209591470FAD0E0FCE493A3C0E0E404
:1007B30093C0E022CAC0E0E493A3C582CCC582C53E
:1007C30083CDC583F0A3C582CCC582C583CDC58344
:1007D300DAE5D0E0CA22CAC0E0E0A3C582CCC58274
:1007E300C583CDC583F0A3C582CCC582C583CDC5E2
:1007F30083DAE6D0E0CA22700908080822601618D6
:100803001818C6C333C608C633C608C633C608C6D7
:1008130033C6D5E0EA22C0E0E493A3D39C5010E4AE
:1008230093A3C39C400AD0E0D0E0D0E00207AAA380
:10083300A3A3D0E022C008C3E096F50808A3E0967E
:10084300420808A3E096420808A3E0964508700111
:10085300D3D00822C09FF59FE473D09F22D083D0CA
:1008630082C09FE493C0E0740193C0E0740293F5E7
:100873009F227404800A7403800674028002740148
:10088300C0E0F404120890D0E0120B10222518F5F2
:100893008210AF08F518400C15198008F5184002AE
:1008A3001519D2AF8519832200C0D0251810AF08BF
:1008B300F518500C05198008F51850020519D2AF28
:1008C300D0D022C0E0C0D0E8C0E0A8A8D2AFC2C751
:1008D300E8A2E792AFD0E0F8D0D0D0E032BB01027B
:1008E300E722C082C08389828A83BB0003E080023F
:1008F300E493D083D082226016080808C6C313C6C7
:1009030018C613C618C613C618C613C6D5E0EA22FE
:100913002518F8E43519F9222518FAE43519FB22CC
:100923002518FCE43519FD22C3E0C696F608A3E0BA
:10093300C696F608A3E0C696F608A3E0C696F62286
:10094300251810AF08F518400C15198008F5184044
:10095300021519D2AF22C0E0E493A36C7009D0E072
:10096300D0E0D0E00207AAA3A3D0E022E066701093
:1009730008A3E066700A08A3E066700408A3E066B3
:1009830022C3E09608A3E09608A3E09608A3E096A6
:10099300A2D265D03322E76670100809E766700AB1
:1009A3000809E76670040809E76622C3E096F008C1
:1009B300A3E096F008A3E096F008A3E096F022C324
:1009C300E697F60809E697F60809E697F60809E6B2
:1009D30097F622C3E49396087401939608740293DE
:1009E30096087403939622700422600D18C6C333CD
:1009F300C608C633C6D5E0F41822E647F60809E66A
:100A030047F60809E647F60809E647F622E026F026
:100A130008A3E036F008A3E036F008A3E036F0229E
:100A2300E627F60809E637F60809E637F60809E681
:100A330037F622E657F60809E657F60809E657F6A9
:100A43000809E657F622E056F008A3E056F008A39B
:100A5300E056F008A3E056F022E026F608A3E036BD
:100A6300F608A3E036F608A3E036F622E056F608C9
:100A7300A3E056F608A3E056F608A3E056F622E4F0
:100A8300C396F608E496F608E496F608E496F6228A
:100A9300600D08C6A2E713C618C613C6D5E0F32235
:100AA300C6F4C608C6F4C608C6F4C608C6F4C62209
:100AB300C3E7960809E7960809E7960809E7962227
:100AC300C3E09608A3E09608A3E09608A3E0962265
:100AD30075D00075813F7518017519040002050171
:100AE300E6F008A3E6F008A3E6F008A3E6F0226028
:100AF3000C08C6C313C618C613C6D5E0F422E0F625
:100B030008A3E0F608A3E0F608A3E0F622CAC0E0D3
:100B1300E6F0A308DAFAD0E0FA22E8F0A3E9F0A3BA
:100B2300EAF0A3EBF022E0F8A3E0F9A3E0FAA3E0F4
:100B3300FB22EAF0A3EBF0A3ECF0A3EDF022E0FA42
:100B4300A3E0FBA3E0FCA3E0FD22E5C754F84401C6
:100B5300F5C77901222518F582E43519F58322C2F8
:100B6300AF75D69F020000221208604B9D04120845
:100B730060559D04120860F29D04120860A09E0453
:100B830012086019A00412086070A004120860A47F
:100B9300A00412086024E803120860A0E803120806
:100BA30060D3E80312086001E90312086025EB0330
:100BB30012086041EB0312086086EB031208600B16
:100BC300EC0312086057EC03120860E7EC03120809
:100BD30060C0ED0312086011EE0312086076EE03A5
:100BE300120860E9EE031208602DEF031208608516
:100BF300EF03120860A7EF0312086037F00312082F
:100C030060C8F00312086014F10312086040F10396
:100C130012086081F10312086022F30312086004D2
:100C2300F403120860E0F403120860F57F00120871
:100C330060F87F00120860FB7F001208602FDF045A
:100C430012086040DF04120860DEDF04120860F857
:100C5300DF04120860FDFF01120860C9E2041208F4
:100C63006007E00412086017E0041208602FE00434
:100C730012086097E0041208602DDC04120860B1CA
:100C8300DC0412086019DD04120860BCD5041208E4
:100C930060DBD50412086048D6041208608DD604C0
:100CA300120860E6D6041208606CAE041208608174
:100CB300AE0412086097AF04120860CFAF041208A5
:100CC30060E9AF0412086076B004120860EAB00469
:100CD30012086004B1041208601BB1041208602EEC
:100CE300B10412086046B1041208605BB104120833
:100CF300607CB104120860CDB10412086002B20432
:100D030012086010B20412086089B2041208605E0F
:100D1300B30412086030B504120860BD7F001208E6
:100D230060F1FF03120860F6FF03120860B0FA01D6
:100D3300120860DCFA0112086073FD01120860B347
:100D4300FD01120860EFFD0112086003FE011208A5
:100D5300601CFE011208600DFF01120860BFFF0155
:100D6300120860D3FF0112086025D70412086049F6
:100D7300D70412086062D704120860A0D7041208CF
:100D830060D0D704120860FDD70412086063D8044A
:100D930012086066D80412086070D8041208607DD7
:100DA300D80412086070C80412086090C8041208BE
:100DB30060CFC804120860EDC80412086008C904B3
:100DC3001208606EC9041208607AC904120860D759
:100DD300C904120860E6C9041208600ACA041208AA
:100DE30060CBCA04120860D8CA04120860E9CA04B6
:100DF30012086069E10412086081E104120860AD21
:100E0300E104120860E4F6021208603EF8021208D8
:100E1300604CF8021208605FF80212086074F8026E
:100E230012086089F8021208609CF8021208601820
:100E3300F9021208607DF90212086013FA0212081F
:100E430060ECFA02120860FCFA021208600BFB0263
:100E530012086058FF031208607CFF03120860A4A5
:100E6300FF03120860CCFF03120860B1CD0412081F
:100E730060D8CD04120860F6CD0412086065CE0474
:100E83001208609DC504120860B6C504120860C24A
:100E9300C504120860D6C504120860F4C50412081C
:100EA30060FEC50412086008C6041208601BC6046D
:100EB300120860A1C60412086016C7041208604530
:100EC300C70412086093C704120860E2C70412083B
:100ED30060FDC70412086007C80412086018C8043C
:100EE3001208605BC804120860B4FF02120860EACB
:100EF300A00412086016A10412086033A1041208AA
:100F03006046A10412086061A104120860BBA10439
:100F1300120860E9A104120860F9A50412086057D9
:100F2300A70412086089A704120860ECA70412083A
:100F33006058A90412086080A90412086095A904E6
:100F4300120860A5A904120860E5A9041208602725
:100F5300AA0412086037AA04120860FDDA04120812
:100F63006017DB041208603FDB0412086058DB04DF
:100F73001208607CDB041208609ADB04120860B17B
:100F8300DB04120860DFDB04120860FADB041208DA
:100F930060B0E10412086095B504120860A5B504B9
:100FA300120860AAB604120860DCB6041208600CCA
:100FB300B7041208602FB70412086046B70412087A
:100FC3006080B704120860E5B70412086027B8040C
:100FD3001208606EB8041208609BB804120860C659
:100FE300B80412086044D20412086056D2041208EE
:100FF300606AD304120860F7D30412086025D4048E
:101003001208605BD40412086073D404120860B53C
:10101300D404120860C5D404120860D4D40412089E
:101023006018D504120860B2D504120860BAF5033B
:10103300120860C4F503120860FEF5031208606726
:10104300F60312086086F60312086028F7031208F5
:1010530060B0F903120860B9F9031208600AFA03D1
:1010630012086033FA0312086040FA03120860B1F1
:10107300FA031208603FFB031208608DFB0312089A
:1010830060C3FB0312086024FC031208604DFC03D9
:10109300120860C4FC0312086020FD031208605D9F
:1010A300FD0312086094FD03120860A6FD031208F5
:1010B30060B8FD03120860D7FD03120860E0FD036A
:1010C3001208609BFE03120860E7FE031208602506
:1010D300FF0312086087D80412086019E10412089C
:1010E3006006D0041208603CD00412086084D00467
:1010F300120860DDD10412086066C303120860970A
:10110300C403120860D3C4031208608DC603120817
:1011130060B7C60312086030C90312086070C903C0
:1011230012086004CB03120860A3CB03120860FB10
:10113300CB031208608ECC03120860C8CC031208DC
:10114300600ACD031208607DCE03120860FDCF0351
:101153001208603AD20312086068D203120860943E
:10116300D2031208609DD203120860FAD203120858
:10117300608AD303120860C6D60312086048D703F7
:10118300120860E7FF0112086067AA041208607D75
:10119300AA0412086021AB0412086060AB041208B1
:1011A300607DAB04120860AEAB04120860FBAB04B5
:1011B3001208602FAC041208606AAC041208605F66
:1011C300AE0412086032DD0412086091DD041208D7
:1011D30060CFDD0412086010DE0412086070BC04E6
:1011E30012086051BD041208606EBD04120860FC51
:1011F300BD041208606EBF04120860C7D904120848
:1012030060F1D904120860EED102120860FAD1022B
:101213001208605CD20212086066D202120860F300
:10122300D2021208602FD302120860F8D302120808
:10123300605ED402120860C6D4021208604BD50265
:10124300120860C9D5021208607AD70212086063D7
:10125300D9021208607DDA0212086025DB02120847
:1012630060F1DF02120860EBE00212086081E10224
:10127300120860A6E10212086043E20212086060ED
:10128300E20212086080E202120860F1E202120830
:10129300600EE3021208603CE302120860D2E4022B
:1012A30012086078E502120860C0E5021208603295
:1012B300E602120860B5E6021208601AE702120895
:1012C3006077E70212086016E80212086081E802FC
:1012D300120860BDE8021208602BE9021208608E52
:1012E300EA0212086007EC02120860B5EC02120869
:1012F30060E3EC02120860E7EE0212086089F10273
:10130300120860A3F202120860E7DC01120860868B
:10131300DD0112086002DE01120860F1DE0112082D
:1013230060EFDF011208606EE001120860B0E101B6
:1013330012086051E20112086011E40112086018FA
:10134300E50112086035E5011208601DE601120887
:10135300605AE70112086004E8011208606EEB01AD
:1013630012086076ED01120860FFED011208605962
:10137300EE01120860A7EE0112086022EF011208C5
:1013830060A4EF01120860E0EF0112086084F60127
:10139300120860DFF801120860BBF9011208601E31
:1013A300B90412086087B904120860FEBA0412086F
:1013B3006092BB04120860ECBB0412086034BC04E6
:1013C30012086061BC0412086064BC041208606DFA
:1013D300BC0412086057E20412086032DE041208EB
:1013E300607DDE041208603BAE031208606AAE0340
:1013F300120860E2AE03120860F1AF031208604DF9
:10140300B003120860C4B103120860E0B10312080C
:101413006032B20312086070B20312086083B20331
:10142300120860DBB2031208609DB3031208600B5D
:10143300B40312086042B4031208607AB4031208BA
:101443006002B603120860E1B6031208602FB80306
:1014530012086012B9031208609EB903120860DE15
:10146300B903120860FDB90312086048BA031208F1
:101473006068BA0312086001BB0312086090BB03E3
:10148300120860EBBB031208602BBC03120860A8B0
:10149300BE03120860CCBF0312086012C003120817
:1014A3006007C1031208602FC10312086032C10331
:1014B3001208603CC10312086058C103120860E0BF
:1014C300C10312086019C20312086045C20312085F
:1014D300606CC20312086090C20312086001C30368
:1014E30012086014C30312086047C3031208609A0A
:1014F300E004120860A6E004120860E4E0041208A5
:1015030060FDFF03120860AB9703120860CE9703D8
:10151300120860289903120860719903120860CFBA
:101523009903120860359A03120860389A03120867
:1015330060899A03120860039B03120860879B0368
:101543001208608A9B03120860129C0312086055FC
:101553009C03120860A8A00312086059A203120892
:10156300609FA20312086017A60312086045A70331
:10157300120860C1A80312086047A9031208603863
:10158300AA03120860BAAC03120860A5D7031208B5
:101593006045D803120860B1D803120860CCD803A1
:1015A30012086056D903120860AFD903120860FA13
:1015B300D90312086061DA03120860E2DB03120840
:1015C30060FADC031208607DDD0312086085DF0327
:1015D30012086029E003120860209703120860B61E
:1015E300E10312086094E30312086035E50312086F
:1015F30060C8E503120860D4E60312086082640041
:10160300120860E564001208602D65001208606B23
:101613006500120860C665001208602366001208A0
:10162300605E6600120860E066001208603A6700B8
:10163300120860AE68001208603869001208604141
:101643009D04120860A56900120860BF69001208B2
:1016530060196A001208609F6C00120860BE6C007B
:10166300120860A96D00120860E36E001208606240
:101673006F00120860996F0012086008700012086A
:1016830060C97000120860A27200120860A37300A0
:101693001208601475001208601477001208608F36
:1016A3007900120860697B001208602A7C00120826
:1016B30060A27C00120860B97C00120860B37D0050
:1016C300120860AB7E001208601A7F00120860AB3C
:1016D300C20412086002C404120860C1C4041208E0
:1016E3006029C504120860AABF04120860C5BF04BC
:1016F30012086009C0041208602FC0041208605663
:10170300C0041208606EC00412086010C1041208FD
:101713006025C10412086047C20412086050C20465
:1017230012086059C20412086062C2041208603CC5
:10173300FB021208603EFF0212086043FF02120818
:101743006045FF021208603ECC041208602BE204DD
:10175300120860F4E10412086082E204120860AB2C
:10176300E20412086035AC0212086068AC02120889
:1017730060D4AC021208606FAD021208600CAE02B6
:1017830012086051AE0212086073AE021208608C38
:10179300AE02120860B2AE02120860D4AE021208A2
:1017A3006012AF0212086056AF0212086078AF02EF
:1017B300120860DAAF02120860A1B0021208605882
:1017C300B102120860CAB10212086095B20212088F
:1017D30060E8B2021208604EB30212086088B302D6
:1017E300120860DAB30212086048B402120860B348
:1017F300B402120860B6B40212086037B5021208C8
:1018030060CEB5021208604EB6021208606DB602D1
:10181300120860D1B702120860DEB702120860EA4C
:10182300B802120860F7B80212086000B902120881
:1018330060D8BA02120860F2BB021208606BBC02E5
:10184300120860DDBC02120860FFBC02120860933C
:10185300BD0212086067BF021208603EC30212088D
:101863006052C30212086062C3021208606CC302B2
:1018730012086075C3021208607EC30212086088F2
:10188300C302120860B5C302120860DEC302120865
:1018930060E9C3021208600DC40212086031C40279
:1018A3001208609BC402120860E1C402120860FEC1
:1018B300C4021208607BC502120860B2C502120896
:1018C30060F1C5021208603EC602120860C4C60277
:1018D30012086092C80212086015C902120860F962
:1018E300C90212086060CC02120860B9CC02120867
:1018F3006003CD021208605ECE0212086093CE022E
:10190300120860E5CE021208609ACF0212086049FD
:10191300D00212086086D0021208601BD10212089E
:101923006087D102120860EA82011208601C8301F9
:101933001208604A830112086020850112086000C2
:101943008601120860588601120860938701120805
:1019530060DF8701120860088B01120860FB8D01AC
:101963001208604B8F01120860E18F01120860EDCD
:101973008F011208601F9001120860A291011208E2
:1019830060B09201120860DA92011208604193017B
:101993001208609A930112086000940112086017FC
:1019A3009601120860A69701120860709801120848
:1019B30060B69901120860069C01120860D69E0168
:1019C300120860E39E011208606A9F01120860FE1C
:1019D3009F0112086041A0011208608AA001120849
:1019E30060DEA00112086057A101120860C6A101C0
:1019F300120860E3A10112086013A20112086048F3
:101A0300A20112086018A301120860C1A301120801
:101A13006047A60112086067A70112086052A80177
:101A2300120860D4A8011208600BAD0112086048C7
:101A3300AD01120860A0AD01120860D3AD01120818
:101A4300603DAE0112086073AE01120860FEAE0184
:101A530012086056AF011208602DB001120860E64B
:101A6300B00112086081B10112086089B401120843
:101A730060A5B50112086048B9011208603CBA01BB
:101A83001208603FBA011208606EBA01120860744E
:101A9300BC011208604DBD0112086090BD0112081F
:101AA30060E6BE0112086025BF01120860B7BF01DE
:101AB300120860EBBF01120860B0C001120860C8D1
:101AC300C20112086039C30112086079C301120808
:101AD3006007C4011208602FC501120860F1C50137
:101AE300120860F8C70112086010C80112086024C8
:101AF300C8011208605CC8011208608AC801120894
:101B03006009CA011208602ECB0112086092CB0152
:101B130012086044CC0112086074CC011208603BC7
:101B2300CD01120860D3CD01120860F9CF0112086C
:101B3300602ED00112086091D001120860C0D1015B
:101B430012086068D20112086099D201120860B1CC
:101B5300D20112086040D301120860F4D5011208C3
:101B630060CCD701120860E8D70112086004D801DD
:101B7300120860D2D801120860C5DC011208608B1C
:101B83002700120860BD2700120860AC2B00120862
:101B930060F82B001208603E2C00120860E02C0055
:101BA3001208603C2D00120860812D00120860C8E5
:101BB3002E00120860DC2F00120860CB33001208DD
:101BC300604F34001208605C3500120860B83500BD
:101BD300120860A837001208601D38001208602739
:101BE30038001208603438001208605F38001208A9
:101BF30060463900120860F039001208606E3A003E
:101C03001208608E3A00120860B73A00120860D9D1
:101C13003A00120860393D00120860FF3D001208C7
:101C230060443E00120860C13E00120860723F002B
:101C3300120860A43F00120860EA3F001208602601
:101C43004000120860764000120860CA4000120883
:101C5300602041001208606C4100120860D9410005
:101C63001208605442001208601F44001208601FEB
:101C730045001208604446001208608349001208B8
:101C830060964C00120860534D00120860974D0097
:101C9300120860474F001208605B4F00120860652E
:101CA3004F001208606F4F001208607B4F0012084C
:101CB30060974F0012086042500012086081500084
:101CC3001208608B500012086095500012086005DE
:101CD300510012086050510012086065520012084A
:101CE30060C15200120860425300120860015400A0
:101CF3001208600A55001208603E56001208602C54
:101D030057001208604457001208609F57001208DA
:101D130060BD57001208600558001208602C580077
:101D2300120860C758001208608D59001208601F1E
:101D33005A00120860995A00120860B35B00120837
:101D430060605C00120860885D00120860D85D0066
:101D53001208603C5E001208609E5E00120860CCB0
:101D63005E00120860F05E00120860255F00120832
:101D730060565F00120860895F00120860A95F0067
:101D830012086011600012086005610012086060AB
:101D93006100120860896100120860116200120874
:101DA30060946200120860BF6200120860A46300BE
:101DB3001208600080041208603880041208605919
:101DC30080041208609B8004120860FD80041208DE
:101DD30060078104120860178104120860528104AD
:101DE3001208603285041208601F87041208600518
:101DF30089041208609C89041208603E8A04120850
:101E030060248102120860A28102120860FE81022E
:101E13001208604982021208606482021208608F0D
:101E23008202120860AC8202120860B882021208B1
:101E3300604F8402120860688402120860ED840215
:101E43001208600085021208601F8502120860C331
:101E53008502120860448702120860F7880212089C
:101E6300608D8902120860908902120860008A025C
:101E73001208601E8A02120860B58A02120860FD09
:101E83008A02120860008B02120860C68B021208D5
:101E930060338C02120860598C02120860E48C02D1
:101EA300120860028D02120860488D02120860FC5D
:101EB3008D02120860468E02120860758E021208A7
:101EC30060D28E02120860078F02120860338F02FD
:101ED300120860418F021208608E8F02120860FEA2
:101EE3008F02120860479002120860939002120852
:101EF30060BF9002120860CA9002120860E8900264
:101F0300120860D39102120860DD91021208601872
:101F1300920212086028920212086031920212089B
:101F230060859202120860999202120860C89302B7
:101F3300120860DD93021208606B9402120860B00D
:101F430094021208603C9502120860479502120839
:101F530060899602120860A49602120860F0960245
:101F63001208605F9702120860989702120860B225
:101F73009702120860F49702120860C49A021208CA
:101F830060719B02120860DE9B021208601E9E02B3
:101F9300120860369E02120860399E0212086045DC
:101FA3009E02120860599E02120860619E02120886
:101FB30060949E02120860969F021208601DA002A0
:101FC3001208608DA0021208600FA102120860D0EF
:101FD300A102120860EFA10212086090A202120887
:101FE30060EDA202120860F0A20212086064A3026C
:101FF300120860B3A402120860B9A5021208604473
:10200300A6021208605FA70212086027A80212083E
:102013006058A8021208607BA80212086084A80214
:10202300120860B3A80212086043A902120860F9FB
:10203300A9021208606EAA0212086015AB02120808
:10204300608AAB02120860C1AB02120860FFAB02E8
:102053001208605195031208600F95031208601D62
:102063009403120860F19303120860A89303120803
:1020730060E59203120860D18F03120860948D0308
:10208300120860618D03120860088D031208609BBB
:102093008C031208605A8C03120860938B03120896
:1020A300602D8B03120860CC8A031208606C8A03CC
:1020B300120860438903120860D788031208602F4F
:1020C30088031208602A88031208601E8803120816
:1020D300605184031208602B8403120860C98303D0
:1020E300120860D69C04120860C29C041208601295
:1020F3009C04120860189B04120860399A041208A1
:10210300608F9704120860A196041208606A830323
:102113001208602B83031208601883031208600DF2
:102123008303120860339604120860DC82031208EA
:1021330060F880031208606B800312086027800335
:102143001208609797031208600080031208608BDF
:102153006900120860DE950412086089950412086C
:10216300605C9504120860299504120860019504C7
:10217300120860A294041208608294041208604D4D
:102183009404120860119104120860E68E04120888
:1021930060D68C04120860538C04120860078C0408
:1021A300120860BB8B041208608D97031208601538
:1021B3008B04120860C8E00300000080FB8F00015D
:1021C30000031687000100011635000400CA152517
:1021D300000200CE1526000200D01527000200D20F
:1021E3001528000100DC1529000100DD1584000419
:1021F300002913860001004B152A000100DE152B70
:10220300000100DF152C000100E3152D0008003547
:10221300132E000100E4152F000100E51530000125
:1022230000E61531000100E715320001003D1333CC
:102233000001003E1334000100E815360001003FA1
:102243001338000100E91539000100E2158300028B
:1022530000FF15630001004B1364000100E01565E6
:10226300000100E1156D0001004C13710008002D01
:102273001366000100FE1543000100EF1544000240
:1022830000F01545000100F21546000200F3154762
:10229300000800431348000100F5154B000100F648
:1022A30015040001000216A1000100061637000103
:1022B3000005168800010004163C00010040133D90
:1022C300000100EA1549000200F715670001004DFF
:1022D300134D000200F9154E000100FB154F0002DB
:1022E30000FC153E000100EE1551000100411352A0
:1022F300000100EC1553000100ED155400010042EC
:102303001300000000000000013636010100010245
:102313000100010301000104010606050200000794
:102323000100340801000F090401010D0100FF0E33
:1023330008000017020000190100FF1A0100011B29
:102343000100FE1C0100081D0200001F0100012006
:10235300010001210200002301000F2402000026D6
:1023630001000127010008280200FF2A0100072BB2
:102373000102402C0100002D0100012E0100012F5C
:102383000100FF30010B1D310800003A0100083B3A
:1023930001000F3C0100013D0100FF3E040000422B
:1023A300040000460400004A0400004E04000052EA
:1023B300040000560400005A0400000103710301E5
:1023C30003010301030103010322030203010310B9
:1023D30003000300030003000300030003000342A0
:1023E300030003240306030003000304031203256D
:1023F300032303250323030403040300030003004F
:102403000344030003000323030003650321003592
:1024130003810300030503000300030003000325F6
:1024230003230303027102300160021102700201EF
:1024330002020202028002100261023A00410063BA
:1024430002730272026202430200021302380000A6
:10245300020002040212020002000200020002044F
:10246300020402370037003C024402000239000034
:1024730002000265020002350281020002050282A7
:102483000283020002010171010101010111010135
:10249300013101010101018001100161013B0014BF
:1024A300006301730172016201430100011301061C
:1024B300013D01350004011201000100010001008A
:1024C3000104010401330133013C014401320136AB
:1024D30000000100016501000135008101000105D3
:1024E30001820183010001030071003001600011CA
:1024F30000700031022003500480001000610000CE
:1025030000140063007300720062004300000013B4
:10251300000600000000000400120000000000009C
:1025230000000004000400370037003C02440000B0
:10253300000000000000006500000035008100007D
:10254300000500000083000000000003002001E9F3
:1025530082000000002001E882000004004201EC38
:1025630080000005004201CA800000060042010EFF
:1025730081000007003001E782000010004203964B
:10258300150000110030032112000012001003A7F0
:102593001503000000210322120000FDFF2101E2C8
:1025A300820300FDFF2101E28236000100060000E4
:1025B300000F000000000000000000000000000306
:1025C300FFFF00000403FFFF0000FFFF0FF4010003
:1025D30005C4040320000100000B000000000000FC
:1025E300000003010F0000000000000000000000D5
:1025F30000000000000000000000000000000000D8
:1026030000000000000000D312F112D9122512DFDE
:1026130012F712DF120313E5122512DF12F712006D
:1026230000000000000000000000000000000000A7
:10263300000000EB12251200000000000000000063
:102643000000000000000000000000000000000087
:102653000000000000000000000000000000000077
:102663000000000000B5150100B51502002B15028E
:10267300802515030031150400371504803D150529
:1026830000431506004F15310061153300671534FB
:10269300006D15FFFF000007ECFDFDFDECDCDCCC5D
:1026A300BCACAC9C9C8C7C7C6C6C5C5C5C4C4C3C97
:1026B3003C2C2C1C1C03EAF5E5D5D5C5B5A5959591
:1026C3008585757565655555454535352525151537
:1026D300050AF71B02C11B05CD1B07C71B0CA91B52
:1026E3000DB51BFF000000160F00000B150B0200B9
:1026F30002220F3300000E0F5A6967426565416C71
:102703006C69616E63653039D0D1D2D3D4D5D6D755
:10271300D8D9DADBDCDDDEDF303016181920231AD6
:102723001C1E3000034D4C4651181A2505020001AA
:1027330019161816161823030030301718192130EC
:102743001B1D1F30003C40423A3F3F392F47300C9E
:102753000E020B040B0A0708000F02040201010119
:10276300010902E803000000BE040A01000E000391
:1027730000E803FF04090C03101E030A0C040408F9
:1027830028020C0508151E0474F71203DEE99014E1
:1027930022F09013D7E4F0120FE590143AE4F0A37B
:1027A300F0901423F0A3F0121D47120FEB90135B6C
:1027B300E4F0A3F01217170240F174F01203DE7471
:1027C300D3120943125B4D54806066901422E0F9E2
:1027D30012106F8A088B09AF09EA4F604C7C0080A6
:1027E300010CEC75F003A4F8A9F074D428F58274F5
:1027F3002639F583E493F46029E493F88A828B8382
:10280300E06870DDEC75F003A4F874D528F58274E4
:102813002639F583E493C0E0740193F583D08212E3
:102823000556AA08EFFB12105D12627F6480022B2B
:102833008C851882851983A3E05420601F121C5DC8
:102843008A088B09AF09EA4F600A121BB5AA08EF81
:10285300FB12105D12627F6420022B8C8518828527
:102863001983E0A2E050429013DCE0640F702E90D5
:10287300077D12628A90077DC3E094E9A3E0940385
:10288300400A7A007B8090124D1241D37900121BCB
:102893008BE960099015CA120B41121BA38518829C
:1028A300851983E06401022B7154207003022B7697
:1028B3007A207B00901422E0F91211B3EA4B4C4DBD
:1028C300701A901436120B29E8494A4B700E75089A
:1028D30001750900750A00750B00806D750C007594
:1028E3000D00750E00750F001211BF8A088B098C3D
:1028F3000A8D0B901436120B29E8494A4B6031902C
:1029030014367808120838400E750CFF750DFF75E4
:102913000EFF750F7F801985080C85090D8C0E8DB0
:102923000F901436780C12092B7401780C1208FAE4
:10293300850C08850D09850E0A850F0BE5084509E9
:10294300450A450B7003022AD07C0079047A007B88
:1029530000121C338A0C8B0DAE0CAF0D022A1474BB
:1029630002120B5874FFF07403120B5874FFF074C7
:1029730004120B5874FF124246125A0774071209C5
:1029830023125CBDE96401706A122B984480F8A39A
:10299300E0F97428120B58E8F0A3E9125F51E0C084
:1029A300E0742A120B58D0E01242335408601674B4
:1029B30028120B58A3E04401122BA5C0E0742C127B
:1029C3000B58D0E0F0125B906011E8240B12338BAC
:1029D300F87416120B58E8F0A3E4F09082BA1207C9
:1029E300047406120923740B12091B12185574047C
:1029F3001208AB8E828F83A3A3A3A3A3A3A3A3A332
:102A03007406122BA5F9121C157405120B58125DCE
:102A130014EE4F7003022AD07C007904EEFAEFFB28
:102A2300121C337405120B58EAF0A3EB123F5DE05E
:102A3300F50CA3E0F50DE4F50EF50F7808790C120B
:102A43000AB34023EE2404F8E43FF985080C850912
:102A53000D8882F583C3E0950CF0A3E0950D126316
:102A630074E84970A4800C8E828F83A3A3A3A3E48C
:102A7300F0A3F08E828F83A3A3A3A3A3A3A3A3A3F3
:102A8300A3E064018E828F83A3A3A3A3A3A37020D7
:102A9300E0540460030229628E828F83A3A3A3A35D
:102AA300A3A3A3A3A37406F07AB7122CCB022A0C18
:102AB300A3A3A3A3E060030229628E828F83A3A34F
:102AC300A3A3A3A3A3A3A37401F0022A0C121C03C0
:102AD3007C0079017A007B00121C33EA4B600312FD
:102AE30041CC7C0079047A007B00121C33EA4B70E2
:102AF3001380448A828B83A3A3A3A3125D2CEE9835
:102B0300EF99400B8A828B83A3A3A3A3125D147C4A
:102B1300007904121C338B0BA90BEA4970D5C3E56A
:102B2300089EE5099F500DC3EE9508FEEF9509FF3A
:102B3300EE4F700D1241CC901436122B9EA3F080F1
:102B430024EE2EFEEF338E08F509E4F50AF50B7833
:102B5300081208757A20122D741208AB1211BF9057
:102B63001436120B35851882851983E06420FAA385
:102B7300E08016A3E0540460131253E412210D798C
:102B83000112355212627F6404FB80047A007B00D9
:102B9300742D025B6CEE125B7AE022E4F0A3F0A3E7
:102BA300F022124238A3A3E022C082C08374EA1247
:102BB30009437C167D007900AA18AB1912103F74E3
:102BC30008120B587402F09013CB125620122BEC00
:102BD3007409120B581256387413120B58E412521C
:102BE300B712170B7416024502E8F0A3E9F090132D
:102BF300D5125CFC2274F71203DE74DA120943EA7D
:102C0300FEEBFFEA4F602DAC18AD19121C7B740666
:102C1300120B58E0601E7417120B58E0FD7401127A
:102C23000B58E0FCEEFAEFFB7900121B61E960043C
:102C330079A48002790074260240EE74F71203DE51
:102C4300EAFEEBFF8A82F583A3A3A3A3A3A3E05425
:102C53004060178A828B83125B2D12441160067ABF
:102C6300FF7BFF8015125B2980039013CB125A0759
:102C730074FE6A700374FF6B6041125B29125B532D
:102C8300121D11E98E828F83600B12571612633F58
:102C9300E4F0A3800312632EF07C917D1B8E828F60
:102CA30083123A87E9F5087015EE4F60097901EE52
:102CB300FAEFFB121C0FA9080240F17508CDAA0810
:102CC300122CCBE960E380EE8E828F8312571A2495
:102CD3000CF582E438F583E0F9121B9D2274F61299
:102CE30003DEE9FEEAFF7A0F7B00121057EA4B601E
:102CF3001A8A828B83740CF0EEA3A3F0EF8A828B83
:102D030083123EAC1253157900802BEEF9121C3955
:102D13008B09A909EA49601C8A828B83A3A3A3A315
:102D2300A3A3A3A3A37406123EB5E0F91218F7EE0A
:102D3300F9121C15791002510074F41203DE8A088B
:102D43008B098C0A8D0B9013DCE0640F701EEA4B29
:102D53004C4D60189013D7E064086005E06404707C
:102D63000B7808120875122D721208AB022FD77A4E
:102D7300017B00901422E0F91211A174042274F46F
:102D83001203DE74FC120943EAFEEBFF8A82F58329
:102D9300A3A3E0F9121C398A088B09EA4B700302DA
:102DA3002EBA8E828F83A3A882A983E0C0E0EA12A1
:102DB300530BD0E0123D1B64F160288E828F83A3F6
:102DC300E064CD601E8E828F83A3E0641A60148E4C
:102DD300828F83A3E064E9600A8E828F83A3E06419
:102DE300E170337900121C0FE9602BE5082404F528
:102DF3000AE43509F50B850882850983A3A3A3A3F8
:102E0300A3A3123DF1123CF9120FF7850A82850B39
:102E130083125B5380708E828F83A3E0C0E07402C1
:102E2300120B58D0E01245101246331237A1C0E0FE
:102E33007403120B58D0E0F0E508125FFC12344A19
:102E4300E0AA18AB19700512184F8003121CF9740D
:102E530002120B58E064E9702D85088285098312FC
:102E630035B0750A01780A120881750AE9780A12E1
:102E73000881123CCD12376EFCA3E0FD8A828B835E
:102E83001237981208AB850882850983A3A3A3A3ED
:102E9300A3A3A3A3A3E06402701285088285098318
:102EA300A3A3A3A3A3A3A3A3A37406F08E828F83D8
:102EB300A3A3E0F9121C15121C039015D01233BC06
:102EC3007404022FD474F41203DEEAFEEBFF7508D8
:102ED300008A82F583A3A3A3A3A3E060387508083F
:102EE3001259FA79FF1219CFEA4B601075082C8E2C
:102EF300828F83A3A3A3A3A3E0D2E0F08E828F8368
:102F0300A3A3A3A3A3E0540364016003022FC34359
:102F13000811022FC3EA24181248F96036EA241A6A
:102F23001248F96003F47013125CDC7003A3E069C8
:102F33006003022FC3750822022FC3EA241B122F3A
:102F4300C7241A1248F9FAEE24191248F9F912188B
:102F5300E5806D8A828B83A3A3A3A3A3A3A3A3A3C7
:102F63001233A770037508018E828F83125CE070A1
:102F730003A3E0697006E508D2E1F508E5086015EA
:102F83008E828F83A3A3E07006E508D2E58004E573
:102F930008D2E6F50812440464017006E508D2E09D
:102FA300F5088E828F83A3A3E06015EE241D124CD7
:102FB30018F9121CFFE964016006E508C2E0F50890
:102FC300A9088010F582E43FF583126397EA22741F
:102FD300091208AB7F0402063B74F01203DE74D7B8
:102FE300120943EAFEEBFF8A82F583A3A3A3A3E0BE
:102FF300600E9015CE125B9760069015CE1233BC0F
:1030030074031209238E828F83A3A3A31254E312A2
:103013005A05121C7BE9700302316D7801740512A5
:103023000B58E0C39402400278007407120B58E077
:10303300C3940240027800740C120B58E064F870D9
:1030430003A3E0F4700302316D740C120B58E064B7
:10305300F97003A3E0F4700302316D740C120B5882
:10306300E064FA7003A3E0F4700302316D740C1290
:103073000B58E064FB7003A3E0F4700302316D743A
:1030830006120B58E0F99013C5E069600302316D35
:10309300E8A2E0400302316D7427120B58E060038D
:1030A30002316DEE2413125CF27422120B58125487
:1030B300ED241C125CF27410120B5812563874096A
:1030C300120B58E0601D741A120B58E0FD740412C1
:1030D3000B58E0FC8E828F83125A057901121B6113
:1030E300E9703B740312091B121BAFE9F50C740959
:1030F300120B58E0702C9013BFE0602674225964C1
:1031030022601F744259644270147420120B5812C7
:1031130033A1600E7420120B5812339A60047ACFD5
:10312300804AE9A2E6504D7420120B58124C1E241B
:10313300FD600F14600C24FD600824FD600424FE70
:1031430070287420120B58123393700E7420120BD4
:1031530058125244A3E0640D601A740312091B123F
:103163001D29E96401700D0233837AD37B001215A4
:1031730001023383EE242DF582E43FF5831235A754
:103183007003A3E069701D75080078081208817840
:1031930008120881EE242F1248F9F91233AD1237C1
:1031A300981208AB7409120B58E0700302324B12E9
:1031B30033AD125A07121D778A0E8B0FEA4B700339
:1031C3000232DC7404120B58E0F88E828F83A3A3BF
:1031D300E028F8A3E03400F9E8240D12338BF88AD1
:1031E300828B83A3A3A3E068600EE88A828B83A308
:1031F300A3A3123EA5122B9F7904E9120B5812497F
:1032030018A3E02AF8A3E034008882F583A3AA82F6
:10321300AB831210458A088B098C0A8D0B850E82AD
:10322300850F83A3A3A3A3780812083840030233AE
:10323300839082927808120A5C850E82850F83A39D
:10324300A312639DA312463C9013D7E06404600865
:10325300E064096003023383E50CA2E54003023313
:1032630016EE242F124901F0EE24301248F9C0E083
:103273007401120B58D0E0F0EE24311248F9C0E08B
:103283007402120B58D0E0F07414120B58E064016E
:103293007026740E120B58123CF424131248F9686A
:1032A3007003A3E0697011740C120B581233A770EA
:1032B300077414120B58E4F0EE2425F582E43FF56D
:1032C300831207047404120923740712091B1218CA
:1032D3005574041208AB02338390141CE06401603C
:1032E3000302324B7420120B581233A17009E50C00
:1032F300A2E6500302324B7410120B58E0F4700331
:10330300A3E0F4607BEEFCEFFD740312091B121BB8
:10331300BB806DA2E650697420120B5812572670B9
:1033230016741A120B58E064027055740312091BC9
:103333007900121CF380497420120B5812339A70CF
:1033430014741A120B58E064047035740312091BC9
:10335300121CE7802B7420120B58123393700C79D4
:1033630000740312091B121D3580157420120B58AB
:10337300125244E0640C7008740312091B121D41BD
:103383007429025B6CE82406F582E439F583E022B4
:10339300125B33E0640322125B33E0640722124CB6
:1033A30022640622124415640222EE242BF582E4E1
:1033B3003F126395EE1243EA22E0F508A3E0AA0860
:1033C300FBE4FCFD121BA32274F41203DEEAFEEB02
:1033D300FF8C088D0990133DE0600F125CDC7003D5
:1033E300A3E06970051218D3805379001259FA12B9
:1033F30019038A828B83E5824583602CA3A3A3A34D
:10340300A3A3E054186021E508241C1234471207D3
:1034130008123443120708EE241812377F124EDFC6
:10342300125CB41208AB801579008E828F83A3A33C
:10343300A312570C124EDF125A071218D9022FD7B4
:10344300E5082413F582E43509F5832274F71203A2
:10345300DE74F7120943EAFEEBFF9013D7E064032F
:10346300600DE064016008E06409600302354D8A81
:10347300828B83A3E0600302351B7C007D007A020C
:103483007B00120FF1125D598A82125CF69013C809
:1034930012563879531216F99013D7E0640960096C
:1034A3009013D5125A07121D7185188285198374DA
:1034B3000112525C9013D77404F0740112091B7942
:1034C3004A1216F374011209237ACD7B131211D712
:1034D300901250E0640B70057406F08005790012B9
:1034E30035529013C81257127A037B00120FF190D2
:1034F30013CB1257127A047B00120FF19013C2E020
:10350300A2E35004D2F08002C2F01252499015CACD
:10351300120B41121BA3802FFC7D007A037B101238
:103523000FF1901250E0640B7003740AF090134192
:10353300E4F0FA7B401250398E828F83A3E0F912B4
:1035430035529013D7E4F0121BE574090240EE9054
:1035530013D5125A0B12186722C082C08390135BD3
:10356300125B9770179013D7E024FB600514600774
:10357300800A901361801F901363801AE8496007E3
:103583001233886401700C8A828B83A3E0F91218CA
:103593005B800E901451125B976006125245120520
:1035A30056024D90125CFC9013D5E06822125CFC2D
:1035B300E8FAE9FB2274F51203DE74D81209438A90
:1035C300088B098A828B83A3A3A3A3A3A3A3A3E04A
:1035D300C3940F50030237698A828B83A3A3A31278
:1035E3005D1474151209238A828B83A3A3A3A3A357
:1035F300A3A3A312376EFAA3E0FB121BF1741512F7
:103603000B58E0702E850882850983A3A3A3A3A387
:10361300A3A3A3E0C3940B401A8E828F83A3A3A317
:10362300A3A3A3A3A3E064027009EE240B1248F939
:10363300F460030237697417120B58E060076402E1
:1036430060030237699013D7E06402601CE06406EC
:10365300601790135B125B9770030237691233880C
:1036630064016003023769802590135B125B9770D6
:103673001D75080078081208817808120881EE2465
:103683001012377F8E828F831237981208AB8E8287
:103693008F8312636C123D24125CF87402120B5870
:1036A3001254ED122B99C0E07404120B58D0E0129F
:1036B30037A1F508A3E0F509740F7808120AF2742C
:1036C30005120B58E508F07419120B58E0C0E074AA
:1036D30006120B58D0E0F0741B120B58E0C0E074D4
:1036E30007120B58D0E0F07416120B58E0C0E074C8
:1036F30009120B58D0E0F07417120B58E0C0E074B5
:1037030008120B58D0E0F0EE24101248F9C0E07410
:103713000A120B58D0E0F0741A120B58E0C0E07490
:103723000B120B58D0E0F07427120B58E0C0E07472
:103733000C120B58D0E0F0741C120B58A982AA8308
:1037430089088A09750A0078081208797C087D00BF
:103753007410120B58AA82AB831248F01208ABAA5A
:1037630018AB19121861742802424CE0F98A828B53
:1037730083A3A3A3A3A3A3A3A3A3E022F582E43F6C
:10378300F583E0F98E828F83A3A3A3A3A3A3A3A3AB
:10379300A312639722125A0B121CB1740222F0EE89
:1037A300124EE4E02274F21203DE74F81209438A23
:1037B3000A8B0B8C0C8D0D8908908209AC18AD19FE
:1037C30074081207D9C200AC0AAD0BAA18AB1912C0
:1037D30059887002D2009014238013AC0AAD0BEE0B
:1037E300240BFAE43FFB125988701B1243DB12408F
:1037F3006E601EA20040E48E828F83E0650C70042D
:10380300A3E0650D70E58E828F83A3A3E065087046
:10381300DAEEFAEFFB7408023D31C082C0839014E4
:1038230023024D8DC082C083901423E4F0A3023A97
:103833008374F71203DE901423126285800FEA2447
:1038430014F582E4125D111210F3EEFAEFFBEA4B6A
:1038530070EC901423E4F0A3F00240F174F212032D
:10386300DE8A0C8B0DEDFF890B8A828B83E08C82C1
:103873008D83F0A3A882A9838A828B8312392812AD
:103883003E9FE0C454F0FA88828983E04AF0EC2436
:1038930002F8E43FF9850C828B83A3A31239281223
:1038A300393BE0333354FC12392FE033333354F8CC
:1038B30012392FA3E0A2E0E4331313FA8882898339
:1038C300E04AF0EC2403FE50010FE50C2407F50851
:1038D300E4350DF509750A0078081208797C087D2E
:1038E30000EEFAEF1248EF1208ABEE2408FE500187
:1038F3000FE50C240FF508E4350DF50978081208D7
:10390300797C037D00EEFAEF1248EF1208ABE50B6A
:10391300C3940F400DE50C2412F582E4350D124ECD
:10392300F3F0023D34A3E08882898322FA888289F6
:1039330083E04A12393BA322F0850C828B83A3A335
:10394300A3A32274F21203DEEBFF8C0C8D0D8A828B
:10395300F583E08C828D83126356A3A882A983E04A
:10396300124D38123D1AC4124D32F0EA126360123E
:103973004D3F123D18A2E2E4338C828D83123D1732
:10398300131313541F124D38A3123D17A2E7E43348
:103993008C828D83A3A3A3A3A3A3F0EA2403FE50E5
:1039A300010FF5088F09750A0078081208797C0859
:1039B3007D00E50C24071248EB1208ABEE2408FE49
:1039C30050010FF5088F0978081208797C037D00F0
:1039D300E50C240F1248EB1208AB8E828F83A3A34E
:1039E300A3E0C0E012637CD0E0F0023D3474F61231
:1039F30003DEEAFEEBFF8A82F583A38582088583D3
:103A030009E0F912187F850882850983E064EB6079
:103A13001E8E828F83A3E064E160148E828F83A362
:103A2300E064F1600A8E828F83A3E0641A70078ECC
:103A3300828F83A3E4F09015CA120B41121BA37566
:103A4300080178081208818E828F83A3E0F5087835
:103A53000812088179009013D51257129013CB12D4
:103A630037981208AB121C03025100C082C083E9CD
:103A73009014357003E4800274018004EAF0A3EB30
:103A8300F0024D90125A0B1217112274F61203DE34
:103A9300901435E0701B7C0079017A007B00121CC6
:103AA30033EA4B600C8A828B83125B976003121B91
:103AB30097025100C082C083123F4E401079FF121B
:103AC3001C2DE9F8902785E493C39850047901806D
:103AD300027900024D9074F21203DE8A0A8B0B897D
:103AE30009C2008A828B83A3A3A3A3A3A3A3A3E0F6
:103AF300F9121C398A0C8B0DAE0CAF0D750801EA57
:103B03004F6003023BBA850A82850B8312570C85EB
:103B13000A82850B83A3A3A3A3A3A3A3123CF91235
:103B23001C218A0C8B0DAE0CAF0DEA4F7003023CC7
:103B3300C68A828B83A3A3A3A3E4F0A3F0E50A249C
:103B43000CFAE4350BFB8A82F583E0C0E0123CCD2E
:103B5300D0E0F0E50A240D123CED240D125632128A
:103B63001D171243F3125B53E50A2411123CED2493
:103B730011125632E50A2413125D23C0E01243E505
:103B8300D0E0F0D200EE2406F8E43FF9123CE01254
:103B93003D1B54046003023C2C9015DCE0F50A75D0
:103BA3000B007407780A1209EA8E828F83A3A3A3FA
:103BB300A3A3A3123CD7F08E828F83A3A3A3A3A3B3
:103BC300A3E0F50AA3E0F50B7407780A120AF2E5FD
:103BD3000A5407FCE50960618E828F83A3A3A3A324
:103BE300A3A3A3A3A37402124246123FE3600B9064
:103BF30013C3124979A3A3125638EC7003023C9DF8
:103C0300EE2406F8E43FF9E8FAE9123CE0F0EC248C
:103C1300FFF50AE434FFF50B7407780A1209EA8A00
:103C2300828983123CD7F080718E828F83A3A3A3F2
:103C3300A3A3A3E04480023BB9EC700575080080A0
:103C4300598E828F83A3A3A3A3A3A3E05420600C64
:103C5300121051EA547F7900245F80198E828F837A
:103C6300A3A3A3A3A3A3E05410601A121051EA5410
:103C73000F7900240A5001098E828F83A3A3A3A383
:103C8300F0A3E9800D8E828F83A3A3A3A37401F015
:103C9300A3E4123D247404123F64A20050288E82D0
:103CA3008F83A3A3A3A3125A11F9EEFAEFFB121CFD
:103CB30027E96012125B906003123D06EEFAEFFBF8
:103CC3001210F3750800A9088067EE240CF582E44E
:103CD3003FF58322E0450AF0A3E0450B228882F5F5
:103CE30083E0547FF0A3E054FC22F582E4350BF526
:103CF30083125CFCEE22A3E0F9850A82850B831212
:103D03005A0B22123D0D12416322EE240FF582E479
:103D13003FF58322A3A3A3A3123D1F22125D3FE01D
:103D230022123D282212423CA3A3A32274031208A9
:103D3300AB7F0602063B74F41203DE74F7120943E9
:103D43007E00121C39EA4B7003023DEC8A828B839E
:103D5300A3A3A3A3A3A3A3A3A3E064066003023DB9
:103D6300EC8A828B83A3A3A3A3A3A3A3E0FF8A82EA
:103D73008B8312631EE0C0E07408120B58D0E0126C
:103D83004114125625125638121C4BEF5408605733
:103D93008518828519831257127A007B00121C1B27
:103DA300EA4B70431263877C007D007A007B0080BE
:103DB300228E828F83124C1EF47003A3E0F46027DB
:103DC3009013D5123DF11240F6601C7C007D00EE8D
:103DD300FAEFFB121C1B8A0A8B0BAE0AAF0BEE4FDA
:103DE30070CF79001217297E01EEF9022FD2123D0E
:103DF300F522E0FCA3E0FD8E828F8322C082C08384
:103E03008A828B83E5824583700990143A80068AFF
:103E1300828B83A3A312401760208A828B83A3A380
:103E2300A3A3A3A3A3E0540860E5EC4D60101240E4
:103E33001D7003A3E06D70D780047A007B00024DF0
:103E43009074F21203DE8A088B09890AECFEEDFFF7
:103E53007A147B001210EDEA4B60378A828B83A3BE
:103E6300A3A3A3A3A3A3A3A3E4123EB5E50A12410C
:103E730000EEF0A3EF123EA512411B123EAC8A8264
:103E83008B8312639F123E98125A8EA3123E9FF0A9
:103E9300A3F0023D34EA240FF582E42212635AA30D
:103EA300A322124106E4F0A322A3F0126317125ACD
:103EB3008E22123EB92212410AA3A3A3A32274F5B0
:103EC3001203DEEAFEEBFF890A8C088D09EA4F60D4
:103ED3007574016970127901121C2DE9F890278716
:103EE300E493C3985015800A7404697009123F4E15
:103EF300500979118052740269704B8E828F83A3AB
:103F0300A3A3A3A3A3A3A3A3E50A123F5D1246336E
:103F1300125C18A3E4F0A3F090143A125B976018B4
:103F23008003125CF888828983A3A31240178882D6
:103F33008983A3A370EC800390143AEEF0A3EF12ED
:103F43003F647900800279C102424F7904121C2D2B
:103F5300E9F8902786E493C39822125C1CA3A3A3D9
:103F630022F07A207B00901422E0F912109922C0EB
:103F730082C083E9F8790090143A801D8A828B838A
:103F8300A3A3A3A3A3A3A3A3A3E068600574FF68EB
:103F93007001098A828B83A3A312401770DE024D3E
:103FA3009074F71203DEEA4B700590143A80068A88
:103FB300828B83A3A3124017601F8A828B83A3A3E0
:103FC300A3A3A3A3A3A3A3E06970E4EC600F8A8275
:103FD3008B83123FE370D880047A007B000240F1A8
:103FE300126337E0540422C082C08390143A8006DF
:103FF3008A828B83A3A312401760128A828B83A3C6
:10400300A3A3A3A3A3A3A3E06970E580047A007B21
:1040130000024D90125A0BEA4B228A828B83124C78
:10402300226C2274F21203DE8A0A8B0B8C0C8D0D28
:10403300750800750900EA4B602A90143A80068ED1
:10404300828F83A3A312406E601AAC0CAD0DEEFAFF
:10405300EFFB850A82850B83120556E9640170DF45
:104063008E088F09AA08AB09023D34E0FEA3E0FFE6
:10407300EE4F2274F71203DE90143A125CF87C00C0
:104083007D00800DE8FCE9FD88828983A3A3125C8F
:10409300F8E8496030EA687002EB6970E790143A17
:1040A300125A07E86A7002E96B88828983A3A370B6
:1040B30008125CF890143A8009125CF88C828D83A4
:1040C300A3A3125638802774F71203DEEAFEEBFF30
:1040D300EA4F6015121C4512414F125B90600312A8
:1040E3003D06EEFAEFFB1210F380031208AB7F01DB
:1040F30002063B125A0B12171DE9641A22124106DB
:10410300A3A32212410A22F08A828B83A3A3A3A32F
:104113002212635A124C2222123EB9A32274F612BF
:1041230003DE90143A125D148014125D3112414F74
:10413300123D06EEFAEFFB1210F3AE08AF09EE4F95
:1041430070E890143AE4F0A3F00251008E828F835A
:1041530012630BF5831241638E828F8312416322B4
:10416300E0FAA3E0FB1210F322C082C083EAFCEB67
:10417300FDEA4D6017EA24FBF582EB34FF125B95F1
:1041830070071241C1E0F4600712105D7905802BBE
:10419300901422E0C0E01241C1D0E0F090277EE409
:1041A30093F97A3C7B14121093E96401700B7A0043
:1041B3007B201241D0790080027904024D90EA24D9
:1041C300FFF582EB34FFF583227A207B00901422E3
:1041D300E0F91210992274F41203DEA2AFE433F56E
:1041E30008C2AF90143C12406E6038EE24FBF58297
:1041F300EF34FF125B957A007B2090142260051246
:1042030041D38005E0F912109FE4F50AF50B780A13
:1042130012087DEEFCEFFD7A3C7B1412108D7402C4
:104223001208ABE508A2E092AFEEFAEFFB022FD73C
:10423300124238E02212423C22124246A3A3A3A315
:10424300A3A322F08E828F83221208AB7F03020680
:104253003B74F21203DE74FA120943EAFEEBFF75B4
:1042630008FE7509FF121C09E9600579110243D69E
:104273001248F6603C9015F6E0C43354E0F8E0339E
:104283003354FC48C0E0EE1253053FF583D0E012EF
:104293005D53FAA3E0FB79FF1219CFEA4B60127565
:1042A30008FFEE240F1248F94404F01248F6D2E056
:1042B300F08E828F8312440F6006EE2412125D6B20
:1042C300EE24131248F9700D902789E493C0E0128D
:1042D30043E5D0E0F08E828F83E0A2E750045403DD
:1042E3008019EE24141248F970129013B4E0C0E060
:1042F3001243DBD0E0F09013B4E004F0EE2411128B
:1043030048F9640170169015E0E0600D9013BFE06A
:10431300700A8E828F83E07003125D688E828F83B2
:10432300E064017013EE240B124C1864027009EE62
:10433300240F1248F94440F0AC18AD19EEFAEFFB24
:10434300121C758A0A8B0B74FE6508700374FFF4E4
:104353007003125D31EA4B60768E828F83E0C0E09A
:104363007401120B58D0E0F07404120B58EEF0A352
:10437300EFF0EE241E125CF27402120B5812563840
:104383007401120913880C890D780C12087DEE2430
:10439300201243F81208811243F3120708EE240E89
:1043A3001243F81208819013C81207087408120BFD
:1043B30058E0F9AC08AD09121C6F74081208ABE998
:1043C300FE74106E700BAA0AAB0B1210F380027E00
:1043D30010EEF97406023D31EE2414F582E43FF544
:1043E3008322EE1243EA222413F582E43FF583226B
:1043F300EE123D0E22F582E43FF583E0F50C780CD6
:10440300228E828F83A3A3A3A3A3A3A3A3A3124454
:104413001522E0FAA3E0FB121D11E922C082C0833A
:1044230074D71209439080927403120923742612DD
:1044330007D98A828B83A3A3A3A3125CF8740E12F9
:104443000B58125B9D125CF8740C120B5812451832
:10445300240D124508C0E0741A120B58D0E0F01274
:104463005A94125CF67420120B5812451824151234
:104473004508C0E07408120B58D0E0F0EA241CF59C
:1044830082E43B125CF67412120B58124518241185
:10449300124508C0E07409120B58D0E0F0EA241268
:1044A300124508C0E07407120B58D0E0F0EA241E4E
:1044B300F582E43B125CF67424120B58124518245F
:1044C30020124508C0E07426120B58D0E0124510A4
:1044D30074FFF07401120B5874FFF07402120B583E
:1044E30074FFF09082BA120704740412092374074C
:1044F30012091B12185574041208AB79007429129F
:1045030008AB024D90F582E43BF583E022F0851879
:104513008285198322E8F0A3E9F0EA2274F41203F6
:10452300DE74EC1209438A0A8B0B8C088D09E9FFB0
:104533007E107A217B001210ED851882851983EA9B
:10454300F0A3EB125BA7E849700302462C7C217DA4
:10455300007900851882851983E0FA12103F9013C1
:10456300D5125A078518828519831257162409F51F
:1045730082E438F583125B537420120B58125CF8F3
:104583007411120B58E8124C87125B5938F5837477
:1045930002124C8A1263257402124C7412463312AF
:1045A3004C8A126302EFF07422120B58124C35F945
:1045B300A3E0C9125FFC39F583E812494AA3E0C9B5
:1045C300241FF582E43912463A7423120B58125A07
:1045D300077406120B58125B537408120B58E8F059
:1045E3007426120B58125B2DC082C083740C120BFD
:1045F30058AC82AD83D083D08274051207D9742559
:10460300120B58E0C0E07413120B58D0E0F079009D
:10461300AA18AB19121C0FE9640170047E0080090B
:10462300851882851983123D09EEF97414022FD47B
:10463300E508F0A3E50922F583E50AF0A3E50BF00D
:104643002274F01203DE74FF120943EAFEEBFF8CBF
:10465300088D098A82F583A37408F0EA24161248A8
:10466300F960088A828B83A37410F0EA2417124836
:10467300F960098A828B83A3E02408F0EA1248F7E1
:1046830060088A828B83A3E004F08A828B83A3A3CE
:10469300A3A3A3A3E060198A828B83A3A3A3A3A3E9
:1046A300A3A3E0C3332402F88A828B83A3E028F018
:1046B300EA24111249016004740E8001E4F090159C
:1046C300EEE0640170168A828B83E06401600D90D2
:1046D3001341E060071248E1740180041248E1E4E9
:1046E30012494A8A828B83A3E0F8EA122B9928297C
:1046F3008C828D83F0EA24111248F96005124F224F
:1047030029F0850882850983E0C394754009750CF7
:1047130000750D000248D8E0FA7B001210ED8A0CF8
:104723008B0DEA4B70030248D88E828F83E0FA9098
:1047330013C5124943740278081209EAEA4508FAD4
:10474300AB09EE241212493D740678081209EAA84F
:1047530008EA48FCEBFD1248F66004780180027811
:1047630000EE2416FAE43FFBE4C8F9ED49FDEE241C
:10477300111248F9F5088809740978081209EAED55
:104783004509FD8A828B83124943740B7808120909
:10479300EAED4509FDEE241712493D740C78081221
:1047A30009EAED4509FD8E828F83A3A3A3A3A3A3E7
:1047B300124943740A78081209EAED4509FDEE240B
:1047C3002312493D740D78081209EAED4509F9EC05
:1047D300850C82850D83F0E9A3F0EE2402124920B3
:1047E30012495FF0EE2404124920A3A312495FA3E8
:1047F300A3F0EE2413124930F0EE2414124930A32F
:10480300F0750B088A828B83E06015125C091257DE
:1048130012E50C2408FAE4350DFB1211D7750B10C1
:10482300EE24171248F96019125795125712A80B64
:10483300E50C28FAE4350DFB1211D77408250BF5A6
:104843000B8E828F83A3A3A3A3A3A3E0604EEE24C6
:1048530007F50EE43FF50F850E82F583E0C0E01205
:10486300490FD0E012494FE0C0E008124911D0E0EF
:1048730012494FA3125B83120879850E82850F8339
:10488300E0124BE9A80BE50C281248EB1208AB85A4
:104893000E82850F83E0C333250BF50B1248F660B8
:1048A30008C0E012490FD0E0F0124EDF125B831212
:1048B3000879122B98FC7D007403120B58124918C7
:1048C300E0F8E50C28F8E4350DF9E82AFAE43912A2
:1048D30048EF1208ABAA0CAB0D7401025B6CEA241F
:1048E30023F582E43FF58322FAE4350DFB121033FE
:1048F300740322EE2415F582E43FF583E022F5826A
:10490300E43FF583E085188285198322A80BE50C23
:1049130028124BFC22E0FA8E828F83A322F8E43F15
:10492300F98882F583E0850C82850D8322F582E484
:104933003FF583124969A3A3A322F582E43FF583DC
:10494300E0F50875090022126348F922F0050B8E81
:10495300828F83A3A3A3A3A3A3A3A322A3A3125DD1
:104963003FA312496922E0850C82850D83A3A3A38B
:10497300227403022FD4125CFC8E828F83A3A322A2
:1049830074F01203DE74FD120943125B4D740212BC
:104993000B58E9F08C0C8D0D750B017C267D00798D
:1049A30000AA0CAB0D12103F7402120B58E0C39413
:1049B300085003024B72124928F0AC0CAD0D851858
:1049C30082851983124C1EFA851882851983125227
:1049D30044124F1BE96003750B0085188285198308
:1049E300125B2D124C3FE0F9EA850C82850D83A3FF
:1049F300A3A3A3A3A3A3A3A3F0A3E9124C74A3A308
:104A0300124C3FA3A3E0F9E50C125BACEA124C870E
:104A1300125702C0E0E50C2411126380D0E0124C5F
:104A23008A2407F582E438F583E0C0E012637CD082
:104A3300E0125B407408124C6BA3E0602685188279
:104A4300851983E02408F8A3E03400F9E50C241366
:104A5300F582E4350D125636850C82850D83A3E06D
:104A63002408F0850C82850D83A3A3A3A3A3A3A38A
:104A7300A3E0602A850C82850D83A385820E85833E
:104A83000F124C2CF8A3E03400F9E50C1253053552
:104A93000D125636850E82850F83E02408F0124BE3
:104AA300F0E4F0124C04E4F0A3125B40A3A3A3A32D
:104AB300E06011124C50850C82850D83A3A3A3A340
:104AC300A3124C7CE50C124C11E07003024B5E12F6
:104AD3004C50FA124BF0EA124C7CF8851882851977
:104AE30083E028FBA3E034008B82F583E0F8E50C38
:104AF300241A126380E8124C7CE8C39AE50C5056E2
:104B0300124C0CF890277FE493C39850047E0C80DA
:104B130006E50C124C0CFE850C82850D83124C2B82
:104B2300F508A3E03400F509750A0078081208793E
:104B3300EE124BE97AF37B081248F01208AB124CE1
:104B43000474F3F0A37408F0EEC333F8850E828582
:104B53000F83E0288004124C11E4F0850C82850D4C
:104B630083A3E0F8850C82850D83E0C39850047914
:104B7300008070124C2BFAA3E03400FBE50C125DAD
:104B830062126383125B53850C82850D83E0C398A5
:104B9300C0E0E50C2417126380D0E0124C6BE06098
:104BA30040E50C2417FEE4350DFF8E82F583E024E7
:104BB300F2F0E50C241DF8E4350DF98882F583E065
:104BC300240EFAA3E03400FB88828983125B53909E
:104BD30013C0E0F9121B67E9F88E828F83E0C39854
:104BE300F0A90B025B6A25E0FCE433FD22E50C121D
:104BF3004BF6222419124BFC22F582E4350DF58382
:104C030022E50C241B124BFC22124BF6E022125B12
:104C13003A124BFF22F582E43FF583124C22221213
:104C23005D01F5838882E022A3124C3022124C35B9
:104C33002822E0F8851882851983E022A3A3E0FAED
:104C4300851882851983125B33A3A3A322850C8263
:104C5300850D83A385820E85830F124C30FAA3E062
:104C630034008A82F583E022125B44A3A3A3A3A3A7
:104C730022124C8FF583888222F0850E82850F8362
:104C8300E004F022F0A3E9124C8FC82212634CF81F
:104C9300A3E02274F41203DE8A088B09EA124D3F63
:104CA300A3A3F0EA1313543F124D32A3F0EAC41343
:104CB30013124D3F124D497409780A120AF2124D2C
:104CC30029A3A3A3A3A3A3F0EB124D2B124D487466
:104CD3000A780A120AF2E50A5401C0E0EC125B3AC0
:104CE3003DF583D0E0124D4D740B780A120AF2128F
:104CF3004D29124D46740C780A120AF2124D29A35B
:104D0300124D46740D780A120AF2E50A5401C0E006
:104D1300EC2424F582E43DF583D0E0F0740E7808AA
:104D2300120AF2022FC3E50A54018C828D832212E8
:104D33004D38A3A322540F8C828D832254038C827B
:104D43008D8322A3A3A3A3A3A3A3F08A0A8B0B227D
:104D5300C082C08379008A828B83A3A3A3A3A3A366
:104D6300E09013BF600EE0701F8A828B83A3A3E0E1
:104D730070168012E060111259FA9013C8E06A703D
:104D830003A3E06B600279018003125A07D083D03A
:104D93008202085D74F21203DE8A0A8B0B890CEC23
:104DA300FEEDFF8A828B83E0FA124F1B850A828510
:104DB3000B83A3A3124F0FE0F9EA8E828F83A3A381
:104DC300A3A3A3A3A3A3A3124F34124F0FA3A3E040
:104DD300F9124EDFEA124F34A3A3E0C0E0EE241130
:104DE300F582E43FF583D0E0124F3BA3A3A3E0C0D9
:104DF300E0EE2412F582E43FF583D0E0125C1874F0
:104E030008123F5DA3A3A3E06017E50A2408F8E4B2
:104E1300350BF91243E5E8F0A3E9125C18E0240826
:104E2300F08E828F83A3A3A3A3A3A3A3A3E06018FD
:104E33008E828F83A3124EFEEE24151256328508FE
:104E430082850983E02408F08E828F83A3A3A3A322
:104E5300A3E060248E828F83A3858208858309E083
:104E6300F8E50A28F582E4350B124EF3A3A3F08587
:104E73000882850983E004F0EEFAEFFB121C87E950
:104E8300F50D70498E828F83A3A3A3A3A3A3124E10
:104E9300EDA37014E0F8E50A28FAE4350BFB124E93
:104EA300D5125B53E50C801A124EFEE8240EF8501F
:104EB3000109EE241D125632124F22F9E50CC39953
:104EC30024F2C398C0E0EE12578CD0E0F0A90D0293
:104ED3003D34EE241DF582E43FF58322EE124EE4C9
:104EE30022240BF582E43FF58322E08E828F832216
:104EF300F583E08E828F83A3A3A322858208858313
:104F030009E0F8E50A28F8E4350BF922E0FA850A06
:104F130082850B83A3A3A322125D74121C812290AA
:104F230013C0E0F9121B67E9F8850882850983E05D
:104F330022F0A3E9124F3B22F0850A82850B83A35B
:104F4300A3A3A322C082C0837A487B1479E21216FA
:104F5300F37A487B14024D90C082C0839013C80239
:104F63004D8DC082C0839013CB024D8DC082C08310
:104F7300794A1216F3024D9074F61203DE90145020
:104F8300E0FE04F0EEF9121C39EA4B70F0EE60ED2E
:104F9300F902510074F21203DEEAFEEBFF8C088D76
:104FA30009890A121D77740E120B58E0F9740F1257
:104FB3000B58E0F8EA4B7012E8701BA90AAC08AD75
:104FC30009EEFAEFFB121D958065E86017E970069C
:104FD3008A828B83E4F07401687054E990145370EF
:104FE30024E4801EE97048EA2402124508A80A282E
:104FF300F8E4340013E813F070358A828B83A3A39B
:105003007401F0802AE004F09015DDE0F890145369
:10501300E0C398401AE4F09013CBE06E7003A3E072
:105023006F700CEEFAEFFB7901121879125035020A
:105033003D347A017B00901422E0F91211AD227401
:10504300F41203DE8A088B098C0A8D0B9082927806
:105053000812096F70077A011241CE801E9015CA9B
:105063007808120AE3EA4B4C4D600D780812087574
:10507300122D721208AB8003125035022FD7C08253
:10508300C0839015CE023A7FC082C0839015D002B0
:105093003A7F74F61203DE7E007508B4750913783F
:1050A3000812087D7C6E7D007A217B0012116574E5
:1050B300021208ABE9640A70027E011217D7E96491
:1050C3000A7004EED2E1FE900436125B97600F1271
:1050D3005245120556E9640A7004EED2E3FE121932
:1050E300F3E9640A7004EED2E4FE121675E9640A69
:1050F3007004EED2E5FEEEF980031208AB7F0202E4
:10510300063B74F61203DE120FEB7508B475091330
:10511300780812087D75086E750900780812087DF5
:105123001251421208AB1217DD900438125B9760DC
:10513300061252451205561219F912168780BE7CC3
:10514300007D007A217B0012117174042274F6121F
:1051530003DE74FF1209437E007508B475091378E2
:105163000812087D7C6E7D007A217B001211657424
:10517300021208ABE9600302521C780812087D751D
:10518300086E8E09780812087D7C007D007A217BE9
:105193000012117774041208ABE9707D9013C8E014
:1051A30064FE7003A3E0F460707E019013D7E064A3
:1051B300086005E06404705C851882851983EE122B
:1051C300525C7ADF7B1379431216F97ADC7B13790D
:1051D300471216F97ACD7B13794A1252377AD57B67
:1051E3001379501216F97AC87B1379531216F97A88
:1051F300DD7B1379541216F97ACA7B1379E11216FF
:10520300F99013C2E0A2E35004D2F08002C2F0127C
:1052130052498005120FEB7E001217CB90043A120D
:105223005B976006125245120556121A05EEF97481
:10523300010250FD1216F97ACB7B13794B1216F942
:1052430022A3125B3422A2F0E433851882851983EA
:105253001252BB79521216F9221252BB794212161C
:10526300F92274F61203DEE9FEA2E0501C7508B4BD
:10527300750913780812087D75086E75090078089A
:1052830012087D1251421208ABEEA2E3500312172B
:10529300D1EEA2E2500E90043C125B9760061252CC
:1052A30045120556025100121BEB7A257B147945F2
:1052B3001216F9221252BB22F0AA18AB192274F764
:1052C3001203DE74ED120943E9FE901421F0AC18C9
:1052D300AD191252ED7412120B58EE1252FAAA18AB
:1052E300AB191252AA74130240EE90160CE0F97A2D
:1052F300257B14121BF122F090160CE0F97C257D1E
:1053030014222415F582E4221263183509F5832249
:10531300EFFB901422E0F912106322EE24161253CD
:105323002522F582E43FF5837401F0221263173FCF
:10533300F58312533922125D01F98882F5832274B1
:10534300F41203DE8A088B097A007B0412503912A7
:1053530053E49013D77409F012597C123443125A50
:1053630007125988640170677A0F7B001210578AFD
:105373000A8B0BAF0BEA4F60568A828B837402F061
:10538300E508125D623509125D80FC88828983A37A
:10539300A3E0FBEC8A828F83A3A3125B54888289E8
:1053A30083A3A3A3E08A828F831253D5FAA3E0FBDE
:1053B300794A1216F9850882850983A3A3A3A3A3B7
:1053C300A3E070069012507405F0AA0A1253130258
:1053D3002FD7A3F0E5082415F582E43509F583E01A
:1053E3002290135D125CFC9015D0E8F0A3E9F090D5
:1053F300135F125CFC9015CEE8F0A3E9F02274F47D
:105403001203DE74FD1209438A088B097401120B1F
:10541300587402125C3970030254DC12532F740463
:10542300F0A3E41254F9E06401700888828983A32D
:105433007420F0850882850983A3A3A3A3A3E06452
:1054430001700988828983A3E0D2E6F0850882850A
:105453000983A3A3A3A3A3A3E06401700A88828999
:1054630083A3E0D2E78006EA1243E674011254F400
:10547300E064017020850882850983A3A3125B97EA
:105483006004EA12531F850882850983A3A3125C73
:10549300F8EA125630850882850983A3A3A3A3A340
:1054A300A3A3E064017009EA240F125321A3E4F0DB
:1054B3008508828509831244116009EE240F12487E
:1054C300F94404F01255058508828509831254E1D5
:1054D3001254EB125D45F980027910024974E0F829
:1054E300A3E0F98E828F8322A3A3E8F0A3E9F0EE71
:1054F300221254F9A322F0850882850983A3A3A36A
:10550300A322EE12577A2274F51203DE74F3120902
:1055130043890AEAFEEBFF7508007509007C0D7DDF
:10552300007900AA18AB1912103F124ED512571F5B
:10553300741F58600C7AD37B001215017900025650
:105543001BE8A2E55008740C120B587401F0E8A292
:10555300E75008740B120B587401F0E8A2E6740AC2
:105563005008120B587401F08008120B58E06401C4
:1055730070138E828F83A3A3A3A3A3A3A3E0603698
:10558300EE241380128E828F83A3A3A3A3A3A3A3CA
:10559300A3E06022EE2415F582E43FF583125D3724
:1055A300E50845096010AC08AD097402120B58AA4E
:1055B30082AB831211D7124EDF1256201256387463
:1055C3000A120B58E064017046901601E0604764CC
:1055D3000170069015EAE0603DEE240B125CF29038
:1055E30013CBE0687003A3E069702B1244047026A8
:1055F300E50845096019121C938A088B09AC08ADAC
:10560300097402120B58AA82AB831259886007AA45
:1056130018AB19121873A90A740D02424C125624BE
:1056230022E0F8A3E0F9851882851983222418F56E
:1056330082E43FF583E8F0A3E9F02274F71203DE76
:1056430074CD120943EAFEEBFF8A82F583125716E3
:10565300125702A2E040030256FD8A828B83125343
:1056630035A3A3A3A3A3A3E054FE126009740D12F0
:105673000923EA241E124508125CD1125A07121C90
:105683008DE97076742A120B58125726706C7C0DB4
:105693007D007900AA18AB1912103F7416120B582B
:1056A300125620125638742A120B5812571FA2E5AD
:1056B3005008740B120B587401F0E8A2E7500874F9
:1056C3000A120B587401F0E8A2E650047420800219
:1056D3007422120B581257127402120B58AA82AB7F
:1056E300831211D78E828F83A3A3E0C0E0740C12C0
:1056F3000B58D0E01252B712186D74330240EE24E7
:1057030006F582E438F583E022A3A3A3A3A3A3129F
:1057130063972212571A22125D01C822125B31A32A
:10572300E0F822124C22640422E9F8790074046838
:10573300600A740A686005740368700279010208DC
:105743005D74F61203DE8A828B837424F0A3A37440
:1057530001F01217FB8A088B09AE08AF09EA4F6004
:10576300078A828B83125772EEFAEFFB02510074A1
:1057730001F0EA12577A2212578C7401F0121C932B
:10578300125795EAF0A3EBF0222417F582E43FF5D4
:105793008322EE241AF582E43FF58322C082C0837C
:1057A30090143E7401F0E9A2E350037403F0E9A2FC
:1057B300E15004E0D2E2F0024D9074F61203DE7978
:1057C300007C008A088B0978081205F5F8FF07F2B8
:1057D30057F057F057F057F057E857EC57F257E4A4
:1057E300577C01800A7C0480067C0280027C08903E
:1057F300143EE05C600479028005EC6002790102EA
:10580300510074F61203DE8A828B83E07014A3A323
:10581300A3125B97600C8A828B83125A04121A5369
:1058230080047A007B00025100C082C0837800E8C4
:1058330075F003A4FCA9F0E9FD1258BB6A7003A339
:10584300E06B7018902777E493C0E0743F2CF582E7
:10585300741439F583D0E0F079C5805908E8C3940E
:105863000340CC7800E875F003A4FCADF01258BBFC
:1058730064FE7003A3E0F4601E08E8C3940340E5EC
:105883007800E875F003A4FCADF0743F2CF5827446
:10589300143DF583E07015E8125DB5125B53902754
:1058A30077E49388828983F07900800908E8C394B8
:1058B3000340CF79C7024D9074402CF58274143D98
:1058C300F583E02274F41203DE74F3120943EAFE53
:1058D300EBFF8C088D09750A12EA4F7005790002F7
:1058E30059779013C8E06E7003A3E06F70141259D8
:1058F3007CAA08AB091259887005750A01800375E3
:105903000A00851882851983E4F004120B58EEF01F
:10591300A3EF1252B71217B3E960297403120B589D
:10592300AA82AB8312178FE964017018750A017498
:1059330003120B58AC82AD83AA08AB0912598860D5
:1059430003750A00AC08AD09EEFAEFFB121D7DE901
:10595300F8740A687005750A01801774A0687012DC
:10596300AC08AD09EEFAEFFB121D89EEFAEFFB125C
:105973001D9BA90A740D022FD4121C938A0A8B0B48
:10598300AC0AAD0B221211D1E92274F71203DEEA3D
:10599300FEEBFF8A82F583A3A3A3A3A3A3A3A3E0A0
:1059A3006019EA2415122FC7124EE0125A07121D6E
:1059B30023E964017005124EDF802D8E828F83A34D
:1059C300A3A3A3A3A3A3E060291243E5125A11FAE8
:1059D300A3E0FB121D23E9640170178E828F83A35A
:1059E300A3A3A3A3A3A3A3A3125A07121D1D790163
:1059F300800279000240F18A828B83A3A3A3A3A32D
:105A0300A3A3A3A3125A0B22E0FAA3E0FB22123DA5
:105A1300F5A3A3A3A3A3A3A3A3A3E02274F2120356
:105A2300DE74FD1209438A088B09ECFEEDFF890A37
:105A3300750B017401120B587404125D4D604474AC
:105A430011120B58E06015125C2FE4125D1A8A8262
:105A53008B83E0D2E7F0EA2414125A8B125A941281
:105A630053337403F0A3E50AF0EE88828983A3A37A
:105A7300F0EF88828983A3A312635512639D125D9D
:105A830048F50BA90B023D2FF582E43BF583E4F0C7
:105A9300221263173B2274F41203DEEAFEEBFF8942
:105AA30008EA124ED6125B2DA3E0FAEE2417124831
:105AB300F9640460097AD37B001215018063EA124A
:105AC300078D01000ED05A00CD5A750800124ED52D
:105AD300A3E0F9EE2409F50AE43FF50B88828983F4
:105AE300A3A3E0FC88828983A3A3125B5DF9850AE3
:105AF30082850B83125A0712188B850A82850B83C2
:105B0300124411601CEE24111248F9C3940240118F
:105B1300124EDF125CE97003A3E0696004A90880F8
:105B2300027900022FD78E828F83125B3122E0F835
:105B3300A3E0F5838882222418F582E422125B44D1
